{
  "_format": "hh-sol-artifact-1",
  "contractName": "NftMarketplace",
  "sourceName": "contracts/NftMarketplace.sol",
  "abi": [
    {
      "inputs": [
        {
          "internalType": "address",
          "name": "nftAddress",
          "type": "address"
        },
        {
          "internalType": "uint256",
          "name": "tokenId",
          "type": "uint256"
        }
      ],
      "name": "NftMarketplace__AlreadyListed",
      "type": "error"
    },
    {
      "inputs": [],
      "name": "NftMarketplace__NotApprovedForMarketplace",
      "type": "error"
    },
    {
      "inputs": [],
      "name": "NftMarketplace__NotOwner",
      "type": "error"
    },
    {
      "inputs": [],
      "name": "NftMarketplace__PriceMustBeAboveZero",
      "type": "error"
    },
    {
      "anonymous": false,
      "inputs": [
        {
          "indexed": true,
          "internalType": "address",
          "name": "sender",
          "type": "address"
        },
        {
          "indexed": true,
          "internalType": "address",
          "name": "nftAddress",
          "type": "address"
        },
        {
          "indexed": true,
          "internalType": "uint256",
          "name": "tokenId",
          "type": "uint256"
        },
        {
          "indexed": false,
          "internalType": "uint256",
          "name": "price",
          "type": "uint256"
        }
      ],
      "name": "ItemListed",
      "type": "event"
    },
    {
      "inputs": [
        {
          "internalType": "address",
          "name": "nftAddress",
          "type": "address"
        },
        {
          "internalType": "uint256",
          "name": "tokenId",
          "type": "uint256"
        },
        {
          "internalType": "uint256",
          "name": "price",
          "type": "uint256"
        }
      ],
      "name": "listItem",
      "outputs": [],
      "stateMutability": "nonpayable",
      "type": "function"
    }
  ],
  "bytecode": "0x608060405234801561001057600080fd5b50610688806100206000396000f3fe608060405234801561001057600080fd5b506004361061002b5760003560e01c806389bfd38f14610030575b600080fd5b61004a6004803603810190610045919061055b565b61004c565b005b82823360008060008573ffffffffffffffffffffffffffffffffffffffff1673ffffffffffffffffffffffffffffffffffffffff1681526020019081526020016000206000848152602001908152602001600020604051806040016040529081600082015481526020016001820160009054906101000a900473ffffffffffffffffffffffffffffffffffffffff1673ffffffffffffffffffffffffffffffffffffffff1673ffffffffffffffffffffffffffffffffffffffff168152505090506000816000015111156101595783836040517fc2f0d7090000000000000000000000000000000000000000000000000000000081526004016101509291906105cc565b60405180910390fd5b868633600083905060008173ffffffffffffffffffffffffffffffffffffffff16636352211e856040518263ffffffff1660e01b815260040161019c91906105f5565b60206040518083038186803b1580156101b457600080fd5b505afa1580156101c8573d6000803e3d6000fd5b505050506040513d601f19601f820116820180604052508101906101ec9190610625565b90508073ffffffffffffffffffffffffffffffffffffffff168373ffffffffffffffffffffffffffffffffffffffff1614610253576040517f94953b6000000000000000000000000000000000000000000000000000000000815260040160405180910390fd5b60008a1161028d576040517f096d7ecf00000000000000000000000000000000000000000000000000000000815260040160405180910390fd5b60008c90503073ffffffffffffffffffffffffffffffffffffffff168173ffffffffffffffffffffffffffffffffffffffff1663081812fc8e6040518263ffffffff1660e01b81526004016102e291906105f5565b60206040518083038186803b1580156102fa57600080fd5b505afa15801561030e573d6000803e3d6000fd5b505050506040513d601f19601f820116820180604052508101906103329190610625565b73ffffffffffffffffffffffffffffffffffffffff161461037f576040517f13e7d28d00000000000000000000000000000000000000000000000000000000815260040160405180910390fd5b60405180604001604052808c81526020013373ffffffffffffffffffffffffffffffffffffffff168152506000808f73ffffffffffffffffffffffffffffffffffffffff1673ffffffffffffffffffffffffffffffffffffffff16815260200190815260200160002060008e81526020019081526020016000206000820151816000015560208201518160010160006101000a81548173ffffffffffffffffffffffffffffffffffffffff021916908373ffffffffffffffffffffffffffffffffffffffff1602179055509050508b8d73ffffffffffffffffffffffffffffffffffffffff163373ffffffffffffffffffffffffffffffffffffffff167fd547e933094f12a9159076970143ebe73234e64480317844b0dcb36117116de48e6040516104ab91906105f5565b60405180910390a450505050505050505050505050565b600080fd5b600073ffffffffffffffffffffffffffffffffffffffff82169050919050565b60006104f2826104c7565b9050919050565b610502816104e7565b811461050d57600080fd5b50565b60008135905061051f816104f9565b92915050565b6000819050919050565b61053881610525565b811461054357600080fd5b50565b6000813590506105558161052f565b92915050565b600080600060608486031215610574576105736104c2565b5b600061058286828701610510565b935050602061059386828701610546565b92505060406105a486828701610546565b9150509250925092565b6105b7816104e7565b82525050565b6105c681610525565b82525050565b60006040820190506105e160008301856105ae565b6105ee60208301846105bd565b9392505050565b600060208201905061060a60008301846105bd565b92915050565b60008151905061061f816104f9565b92915050565b60006020828403121561063b5761063a6104c2565b5b600061064984828501610610565b9150509291505056fea2646970667358221220783ab5fffc5f0a6414f3e10eb7b06bfafd7b911b219264eef97f2221b683296d64736f6c63430008080033",
  "linkReferences": {},
  "deployedLinkReferences": {}
}